{
  "contractName": "Faucet",
  "abi": [
    {
      "inputs": [],
      "name": "numOfFunders",
      "outputs": [
        {
          "internalType": "uint256",
          "name": "",
          "type": "uint256"
        }
      ],
      "stateMutability": "view",
      "type": "function",
      "constant": true
    },
    {
      "inputs": [],
      "name": "owner",
      "outputs": [
        {
          "internalType": "address",
          "name": "",
          "type": "address"
        }
      ],
      "stateMutability": "view",
      "type": "function",
      "constant": true
    },
    {
      "inputs": [],
      "name": "test3",
      "outputs": [
        {
          "internalType": "uint256",
          "name": "",
          "type": "uint256"
        }
      ],
      "stateMutability": "pure",
      "type": "function",
      "constant": true
    },
    {
      "inputs": [],
      "name": "testNum",
      "outputs": [
        {
          "internalType": "uint256",
          "name": "",
          "type": "uint256"
        }
      ],
      "stateMutability": "view",
      "type": "function",
      "constant": true
    },
    {
      "stateMutability": "payable",
      "type": "receive",
      "payable": true
    },
    {
      "inputs": [],
      "name": "emitLog",
      "outputs": [
        {
          "internalType": "bytes32",
          "name": "",
          "type": "bytes32"
        }
      ],
      "stateMutability": "pure",
      "type": "function",
      "constant": true
    },
    {
      "inputs": [
        {
          "internalType": "address",
          "name": "newOwner",
          "type": "address"
        }
      ],
      "name": "transferOwnerShip",
      "outputs": [],
      "stateMutability": "nonpayable",
      "type": "function"
    },
    {
      "inputs": [],
      "name": "addFunds",
      "outputs": [],
      "stateMutability": "payable",
      "type": "function",
      "payable": true
    },
    {
      "inputs": [],
      "name": "test1",
      "outputs": [],
      "stateMutability": "nonpayable",
      "type": "function"
    },
    {
      "inputs": [],
      "name": "test2",
      "outputs": [],
      "stateMutability": "nonpayable",
      "type": "function"
    },
    {
      "inputs": [
        {
          "internalType": "uint256",
          "name": "withdrawAmount",
          "type": "uint256"
        }
      ],
      "name": "withdraw",
      "outputs": [],
      "stateMutability": "nonpayable",
      "type": "function"
    },
    {
      "inputs": [],
      "name": "getAllFunders",
      "outputs": [
        {
          "internalType": "address[]",
          "name": "",
          "type": "address[]"
        }
      ],
      "stateMutability": "view",
      "type": "function",
      "constant": true
    },
    {
      "inputs": [
        {
          "internalType": "uint8",
          "name": "index",
          "type": "uint8"
        }
      ],
      "name": "getFunderAtIndex",
      "outputs": [
        {
          "internalType": "address",
          "name": "",
          "type": "address"
        }
      ],
      "stateMutability": "view",
      "type": "function",
      "constant": true
    }
  ],
  "bytecode": "0x608060405234801561001057600080fd5b50336000806101000a81548173ffffffffffffffffffffffffffffffffffffffff021916908373ffffffffffffffffffffffffffffffffffffffff1602179055506103e8600181905550610ca0806100696000396000f3fe6080604052600436106100ab5760003560e01c80638863dd1a116100645780638863dd1a146101a15780638da5cb5b146101ca578063a26759cb146101f5578063ae28f1ed146101ff578063af7f2c9b1461022a578063f42c13bf14610255576100b2565b80630a8e8e01146100b75780630a93cf33146100e25780632e1a7d4d1461011f57806366e41cb7146101485780636b59084d1461015f5780636fbbb55d14610176576100b2565b366100b257005b600080fd5b3480156100c357600080fd5b506100cc610280565b6040516100d99190610a57565b60405180910390f35b3480156100ee57600080fd5b506101096004803603810190610104919061089e565b610289565b60405161011691906109bf565b60405180910390f35b34801561012b57600080fd5b5061014660048036038101906101419190610875565b6102c9565b005b34801561015457600080fd5b5061015d610360565b005b34801561016b57600080fd5b506101746103f0565b005b34801561018257600080fd5b5061018b610480565b60405161019891906109da565b60405180910390f35b3480156101ad57600080fd5b506101c860048036038101906101c3919061084c565b6105c6565b005b3480156101d657600080fd5b506101df610697565b6040516101ec91906109bf565b60405180910390f35b6101fd6106bb565b005b34801561020b57600080fd5b506102146107d9565b6040516102219190610a57565b60405180910390f35b34801561023657600080fd5b5061023f6107df565b60405161024c9190610a57565b60405180910390f35b34801561026157600080fd5b5061026a6107e5565b60405161027791906109fc565b60405180910390f35b60006064905090565b6000600460008360ff16815260200190815260200160002060009054906101000a900473ffffffffffffffffffffffffffffffffffffffff169050919050565b8067016345785d8a0000811115610315576040517f08c379a000000000000000000000000000000000000000000000000000000000815260040161030c90610a37565b60405180910390fd5b3373ffffffffffffffffffffffffffffffffffffffff166108fc839081150290604051600060405180830381858888f1935050505015801561035b573d6000803e3d6000fd5b505050565b60008054906101000a900473ffffffffffffffffffffffffffffffffffffffff1673ffffffffffffffffffffffffffffffffffffffff163373ffffffffffffffffffffffffffffffffffffffff16146103ee576040517f08c379a00000000000000000000000000000000000000000000000000000000081526004016103e590610a17565b60405180910390fd5b565b60008054906101000a900473ffffffffffffffffffffffffffffffffffffffff1673ffffffffffffffffffffffffffffffffffffffff163373ffffffffffffffffffffffffffffffffffffffff161461047e576040517f08c379a000000000000000000000000000000000000000000000000000000000815260040161047590610a17565b60405180910390fd5b565b6060600060025467ffffffffffffffff8111156104c6577f4e487b7100000000000000000000000000000000000000000000000000000000600052604160045260246000fd5b6040519080825280602002602001820160405280156104f45781602001602082028036833780820191505090505b50905060005b6002548110156105be576004600082815260200190815260200160002060009054906101000a900473ffffffffffffffffffffffffffffffffffffffff16828281518110610571577f4e487b7100000000000000000000000000000000000000000000000000000000600052603260045260246000fd5b602002602001019073ffffffffffffffffffffffffffffffffffffffff16908173ffffffffffffffffffffffffffffffffffffffff168152505080806105b690610b0f565b9150506104fa565b508091505090565b60008054906101000a900473ffffffffffffffffffffffffffffffffffffffff1673ffffffffffffffffffffffffffffffffffffffff163373ffffffffffffffffffffffffffffffffffffffff1614610654576040517f08c379a000000000000000000000000000000000000000000000000000000000815260040161064b90610a17565b60405180910390fd5b806000806101000a81548173ffffffffffffffffffffffffffffffffffffffff021916908373ffffffffffffffffffffffffffffffffffffffff16021790555050565b60008054906101000a900473ffffffffffffffffffffffffffffffffffffffff1681565b6000339050600360008273ffffffffffffffffffffffffffffffffffffffff1673ffffffffffffffffffffffffffffffffffffffff16815260200190815260200160002060009054906101000a900460ff166107d6576002600081548092919061072490610b0f565b91905055506001600360008373ffffffffffffffffffffffffffffffffffffffff1673ffffffffffffffffffffffffffffffffffffffff16815260200190815260200160002060006101000a81548160ff0219169083151502179055508060046000600254815260200190815260200160002060006101000a81548173ffffffffffffffffffffffffffffffffffffffff021916908373ffffffffffffffffffffffffffffffffffffffff1602179055505b50565b60015481565b60025481565b60007f48656c6c6f20576f726c64000000000000000000000000000000000000000000905090565b60008135905061081c81610c25565b92915050565b60008135905061083181610c3c565b92915050565b60008135905061084681610c53565b92915050565b60006020828403121561085e57600080fd5b600061086c8482850161080d565b91505092915050565b60006020828403121561088757600080fd5b600061089584828501610822565b91505092915050565b6000602082840312156108b057600080fd5b60006108be84828501610837565b91505092915050565b60006108d383836108df565b60208301905092915050565b6108e881610abc565b82525050565b6108f781610abc565b82525050565b600061090882610a82565b6109128185610a9a565b935061091d83610a72565b8060005b8381101561094e57815161093588826108c7565b975061094083610a8d565b925050600181019050610921565b5085935050505092915050565b61096481610ace565b82525050565b6000610977602183610aab565b915061098282610b87565b604082019050919050565b600061099a602483610aab565b91506109a582610bd6565b604082019050919050565b6109b981610af8565b82525050565b60006020820190506109d460008301846108ee565b92915050565b600060208201905081810360008301526109f481846108fd565b905092915050565b6000602082019050610a11600083018461095b565b92915050565b60006020820190508181036000830152610a308161096a565b9050919050565b60006020820190508181036000830152610a508161098d565b9050919050565b6000602082019050610a6c60008301846109b0565b92915050565b6000819050602082019050919050565b600081519050919050565b6000602082019050919050565b600082825260208201905092915050565b600082825260208201905092915050565b6000610ac782610ad8565b9050919050565b6000819050919050565b600073ffffffffffffffffffffffffffffffffffffffff82169050919050565b6000819050919050565b600060ff82169050919050565b6000610b1a82610af8565b91507fffffffffffffffffffffffffffffffffffffffffffffffffffffffffffffffff821415610b4d57610b4c610b58565b5b600182019050919050565b7f4e487b7100000000000000000000000000000000000000000000000000000000600052601160045260246000fd5b7f4f6e6c79206f776e65722063616e2063616c6c20746869732066756e6374696f60008201527f6e00000000000000000000000000000000000000000000000000000000000000602082015250565b7f43616e206e6f74207769746864726177206d6f7265207468616e20302e31206560008201527f7468657200000000000000000000000000000000000000000000000000000000602082015250565b610c2e81610abc565b8114610c3957600080fd5b50565b610c4581610af8565b8114610c5057600080fd5b50565b610c5c81610b02565b8114610c6757600080fd5b5056fea2646970667358221220fe8a61e23bd2f1f66c446e9ba92c81e3aa5b3e05bb3600dab4b99dcef49f113d64736f6c63430008040033",
  "immutableReferences": {},
  "source": "//SPDX-License-Identifier: MIT\npragma solidity >=0.4.22 < 0.9.0;\n\nimport \"./Owned.sol\";\nimport \"./Logger.sol\";\nimport \"./IFaucet.sol\";\n\ncontract Faucet is Owned,Logger, IFaucet {   \n    uint public numOfFunders;\n\n    // address[] public funders;\n    mapping( address => bool) private funders; // This is for check duplication\n    mapping( uint => address) private lutFunders; //look up tabble funders\n\n\n    modifier limitWithdraw(uint withdrawAmount) {\n        require(withdrawAmount <= 100000000000000000, \"Can not withdraw more than 0.1 ether\" );\n        _;\n    }\n    \n    receive() external payable {}\n\n    function emitLog() public pure override returns(bytes32){\n        return \"Hello World\";\n    }\n\n    function transferOwnerShip(address newOwner) external onlyOwner{\n        owner = newOwner;\n    }\n\n    function addFunds() override external payable {\n        address funder = msg.sender;\n\n        if(!funders[funder]){\n            numOfFunders++;\n            funders[funder] = true;\n            lutFunders[numOfFunders] = funder;\n        }\n    }\n\n    function test1() external onlyOwner {\n        //some managing stuff that only admin should have access to\n    }\n\n    function test2() external onlyOwner {\n        //some managing stuff that only admin should have access to\n    }\n\n    function withdraw (uint withdrawAmount) override external limitWithdraw(withdrawAmount) {\n        payable(msg.sender).transfer(withdrawAmount);\n    }\n\n    function getAllFunders() external view returns(address[] memory){\n        address[] memory _funders = new address[](numOfFunders); // This is array of numOfFunders elt\n\n        for(uint i=0; i<numOfFunders; i++){\n            _funders[i] = lutFunders[i];\n        }\n        return _funders;\n    }\n\n    function getFunderAtIndex(uint8 index) external view returns(address) {\n        return lutFunders[index];\n    }\n}\n\n// const instance = await Faucet.deployed()\n// instance.addFunds({from: accounts[0], value:\"2000000000000000000\"})\n// instance.addFunds({from: accounts[1], value:\"2000000000000000000\"})\n\n//instance.withdraw(\"500000000000000000\", {from: accounts[1]})\n\n// instance.getAllFunders()",
  "sourcePath": "/home/rolko/PROGRAMMATION/Scripts/Blokchain/Practices/faucet/contracts/FaucetContract.sol",
  "compiler": {
    "name": "solc",
    "version": "0.8.4+commit.c7e474f2.Emscripten.clang"
  },
  "schemaVersion": "3.4.13",
  "updatedAt": "2023-08-04T12:19:33.678Z",
  "networkType": "ethereum",
  "devdoc": {
    "kind": "dev",
    "methods": {},
    "version": 1
  },
  "userdoc": {
    "kind": "user",
    "methods": {},
    "version": 1
  }
}